{
  "_format": "hh-sol-artifact-1",
  "contractName": "ERC721Marketplace",
  "sourceName": "contracts/ERC721Marketplace/ERC721Marketplace.sol",
  "abi": [
    {
      "inputs": [
        {
          "internalType": "address",
          "name": "marketplace_",
          "type": "address"
        },
        {
          "internalType": "string",
          "name": "collectionURI_",
          "type": "string"
        },
        {
          "internalType": "string",
          "name": "name_",
          "type": "string"
        },
        {
          "internalType": "string",
          "name": "symbol_",
          "type": "string"
        },
        {
          "internalType": "address",
          "name": "newOwner_",
          "type": "address"
        }
      ],
      "stateMutability": "nonpayable",
      "type": "constructor"
    },
    {
      "anonymous": false,
      "inputs": [
        {
          "indexed": true,
          "internalType": "address",
          "name": "owner",
          "type": "address"
        },
        {
          "indexed": true,
          "internalType": "address",
          "name": "approved",
          "type": "address"
        },
        {
          "indexed": true,
          "internalType": "uint256",
          "name": "tokenId",
          "type": "uint256"
        }
      ],
      "name": "Approval",
      "type": "event"
    },
    {
      "anonymous": false,
      "inputs": [
        {
          "indexed": true,
          "internalType": "address",
          "name": "owner",
          "type": "address"
        },
        {
          "indexed": true,
          "internalType": "address",
          "name": "operator",
          "type": "address"
        },
        {
          "indexed": false,
          "internalType": "bool",
          "name": "approved",
          "type": "bool"
        }
      ],
      "name": "ApprovalForAll",
      "type": "event"
    },
    {
      "anonymous": false,
      "inputs": [
        {
          "indexed": true,
          "internalType": "address",
          "name": "previousOwner",
          "type": "address"
        },
        {
          "indexed": true,
          "internalType": "address",
          "name": "newOwner",
          "type": "address"
        }
      ],
      "name": "OwnershipTransferred",
      "type": "event"
    },
    {
      "anonymous": false,
      "inputs": [
        {
          "indexed": true,
          "internalType": "address",
          "name": "from",
          "type": "address"
        },
        {
          "indexed": true,
          "internalType": "address",
          "name": "to",
          "type": "address"
        },
        {
          "indexed": true,
          "internalType": "uint256",
          "name": "tokenId",
          "type": "uint256"
        }
      ],
      "name": "Transfer",
      "type": "event"
    },
    {
      "inputs": [
        {
          "internalType": "address",
          "name": "to",
          "type": "address"
        },
        {
          "internalType": "uint256",
          "name": "tokenId",
          "type": "uint256"
        }
      ],
      "name": "approve",
      "outputs": [],
      "stateMutability": "nonpayable",
      "type": "function"
    },
    {
      "inputs": [
        {
          "internalType": "address",
          "name": "owner",
          "type": "address"
        }
      ],
      "name": "balanceOf",
      "outputs": [
        {
          "internalType": "uint256",
          "name": "",
          "type": "uint256"
        }
      ],
      "stateMutability": "view",
      "type": "function"
    },
    {
      "inputs": [],
      "name": "baseURI",
      "outputs": [
        {
          "internalType": "string",
          "name": "",
          "type": "string"
        }
      ],
      "stateMutability": "view",
      "type": "function"
    },
    {
      "inputs": [],
      "name": "collectionURI",
      "outputs": [
        {
          "internalType": "string",
          "name": "",
          "type": "string"
        }
      ],
      "stateMutability": "view",
      "type": "function"
    },
    {
      "inputs": [
        {
          "internalType": "uint256",
          "name": "tokenId",
          "type": "uint256"
        }
      ],
      "name": "creator",
      "outputs": [
        {
          "internalType": "address",
          "name": "",
          "type": "address"
        }
      ],
      "stateMutability": "view",
      "type": "function"
    },
    {
      "inputs": [],
      "name": "eject",
      "outputs": [],
      "stateMutability": "nonpayable",
      "type": "function"
    },
    {
      "inputs": [
        {
          "internalType": "uint256",
          "name": "tokenId",
          "type": "uint256"
        }
      ],
      "name": "getApproved",
      "outputs": [
        {
          "internalType": "address",
          "name": "",
          "type": "address"
        }
      ],
      "stateMutability": "view",
      "type": "function"
    },
    {
      "inputs": [
        {
          "internalType": "uint256",
          "name": "tokenId",
          "type": "uint256"
        }
      ],
      "name": "getRoyalty",
      "outputs": [
        {
          "internalType": "uint256",
          "name": "",
          "type": "uint256"
        }
      ],
      "stateMutability": "view",
      "type": "function"
    },
    {
      "inputs": [
        {
          "internalType": "address",
          "name": "owner",
          "type": "address"
        },
        {
          "internalType": "address",
          "name": "operator",
          "type": "address"
        }
      ],
      "name": "isApprovedForAll",
      "outputs": [
        {
          "internalType": "bool",
          "name": "",
          "type": "bool"
        }
      ],
      "stateMutability": "view",
      "type": "function"
    },
    {
      "inputs": [],
      "name": "marketplace",
      "outputs": [
        {
          "internalType": "address",
          "name": "",
          "type": "address"
        }
      ],
      "stateMutability": "view",
      "type": "function"
    },
    {
      "inputs": [
        {
          "internalType": "string",
          "name": "tokenURI",
          "type": "string"
        },
        {
          "internalType": "address",
          "name": "creator",
          "type": "address"
        },
        {
          "internalType": "address",
          "name": "receiver",
          "type": "address"
        },
        {
          "internalType": "uint256",
          "name": "royalty",
          "type": "uint256"
        }
      ],
      "name": "mint",
      "outputs": [
        {
          "internalType": "uint256",
          "name": "",
          "type": "uint256"
        }
      ],
      "stateMutability": "nonpayable",
      "type": "function"
    },
    {
      "inputs": [],
      "name": "name",
      "outputs": [
        {
          "internalType": "string",
          "name": "",
          "type": "string"
        }
      ],
      "stateMutability": "view",
      "type": "function"
    },
    {
      "inputs": [],
      "name": "owner",
      "outputs": [
        {
          "internalType": "address",
          "name": "",
          "type": "address"
        }
      ],
      "stateMutability": "view",
      "type": "function"
    },
    {
      "inputs": [
        {
          "internalType": "uint256",
          "name": "tokenId",
          "type": "uint256"
        }
      ],
      "name": "ownerOf",
      "outputs": [
        {
          "internalType": "address",
          "name": "",
          "type": "address"
        }
      ],
      "stateMutability": "view",
      "type": "function"
    },
    {
      "inputs": [],
      "name": "renounceOwnership",
      "outputs": [],
      "stateMutability": "nonpayable",
      "type": "function"
    },
    {
      "inputs": [
        {
          "internalType": "address",
          "name": "from",
          "type": "address"
        },
        {
          "internalType": "address",
          "name": "to",
          "type": "address"
        },
        {
          "internalType": "uint256",
          "name": "tokenId",
          "type": "uint256"
        }
      ],
      "name": "safeTransferFrom",
      "outputs": [],
      "stateMutability": "nonpayable",
      "type": "function"
    },
    {
      "inputs": [
        {
          "internalType": "address",
          "name": "from",
          "type": "address"
        },
        {
          "internalType": "address",
          "name": "to",
          "type": "address"
        },
        {
          "internalType": "uint256",
          "name": "tokenId",
          "type": "uint256"
        },
        {
          "internalType": "bytes",
          "name": "_data",
          "type": "bytes"
        }
      ],
      "name": "safeTransferFrom",
      "outputs": [],
      "stateMutability": "nonpayable",
      "type": "function"
    },
    {
      "inputs": [
        {
          "internalType": "address",
          "name": "operator",
          "type": "address"
        },
        {
          "internalType": "bool",
          "name": "approved",
          "type": "bool"
        }
      ],
      "name": "setApprovalForAll",
      "outputs": [],
      "stateMutability": "nonpayable",
      "type": "function"
    },
    {
      "inputs": [
        {
          "internalType": "bytes4",
          "name": "interfaceId",
          "type": "bytes4"
        }
      ],
      "name": "supportsInterface",
      "outputs": [
        {
          "internalType": "bool",
          "name": "",
          "type": "bool"
        }
      ],
      "stateMutability": "view",
      "type": "function"
    },
    {
      "inputs": [],
      "name": "symbol",
      "outputs": [
        {
          "internalType": "string",
          "name": "",
          "type": "string"
        }
      ],
      "stateMutability": "view",
      "type": "function"
    },
    {
      "inputs": [
        {
          "internalType": "uint256",
          "name": "index",
          "type": "uint256"
        }
      ],
      "name": "tokenByIndex",
      "outputs": [
        {
          "internalType": "uint256",
          "name": "",
          "type": "uint256"
        }
      ],
      "stateMutability": "view",
      "type": "function"
    },
    {
      "inputs": [
        {
          "internalType": "address",
          "name": "owner",
          "type": "address"
        },
        {
          "internalType": "uint256",
          "name": "index",
          "type": "uint256"
        }
      ],
      "name": "tokenOfOwnerByIndex",
      "outputs": [
        {
          "internalType": "uint256",
          "name": "",
          "type": "uint256"
        }
      ],
      "stateMutability": "view",
      "type": "function"
    },
    {
      "inputs": [
        {
          "internalType": "uint256",
          "name": "tokenId",
          "type": "uint256"
        }
      ],
      "name": "tokenURI",
      "outputs": [
        {
          "internalType": "string",
          "name": "",
          "type": "string"
        }
      ],
      "stateMutability": "view",
      "type": "function"
    },
    {
      "inputs": [],
      "name": "totalSupply",
      "outputs": [
        {
          "internalType": "uint256",
          "name": "",
          "type": "uint256"
        }
      ],
      "stateMutability": "view",
      "type": "function"
    },
    {
      "inputs": [
        {
          "internalType": "address",
          "name": "from",
          "type": "address"
        },
        {
          "internalType": "address",
          "name": "to",
          "type": "address"
        },
        {
          "internalType": "uint256",
          "name": "tokenId",
          "type": "uint256"
        }
      ],
      "name": "transferFrom",
      "outputs": [],
      "stateMutability": "nonpayable",
      "type": "function"
    },
    {
      "inputs": [
        {
          "internalType": "address",
          "name": "newOwner",
          "type": "address"
        }
      ],
      "name": "transferOwnership",
      "outputs": [],
      "stateMutability": "nonpayable",
      "type": "function"
    }
  ],
  "bytecode": "0x60806040523480156200001157600080fd5b50604051620025d0380380620025d0833981016040819052620000349162000351565b8251839083906200004d906000906020850190620001e3565b50805162000063906001906020840190620001e3565b505050620000806200007a620000f860201b60201c565b620000fc565b600c80546001600160a01b0319166001600160a01b0387161790558351620000b090600b906020870190620001e3565b5060408051808201909152600780825266697066733a2f2f60c81b6020909201918252620000e191601191620001e3565b50620000ed816200014e565b5050505050620004d3565b3390565b600a80546001600160a01b038381166001600160a01b0319831681179093556040519116919082907f8be0079c531659141344cd1fd0a4f28419497f9722a3daafe3b4186f6b6457e090600090a35050565b62000158620000f8565b6001600160a01b03166200016b620001d4565b6001600160a01b0316146200019d5760405162461bcd60e51b815260040162000194906200044b565b60405180910390fd5b6001600160a01b038116620001c65760405162461bcd60e51b8152600401620001949062000405565b620001d181620000fc565b50565b600a546001600160a01b031690565b828054620001f19062000480565b90600052602060002090601f01602090048101928262000215576000855562000260565b82601f106200023057805160ff191683800117855562000260565b8280016001018555821562000260579182015b828111156200026057825182559160200191906001019062000243565b506200026e92915062000272565b5090565b5b808211156200026e576000815560010162000273565b80516001600160a01b0381168114620002a157600080fd5b919050565b600082601f830112620002b7578081fd5b81516001600160401b0380821115620002d457620002d4620004bd565b6040516020601f8401601f1916820181018381118382101715620002fc57620002fc620004bd565b604052838252858401810187101562000313578485fd5b8492505b8383101562000336578583018101518284018201529182019162000317565b838311156200034757848185840101525b5095945050505050565b600080600080600060a0868803121562000369578081fd5b620003748662000289565b60208701519095506001600160401b038082111562000391578283fd5b6200039f89838a01620002a6565b95506040880151915080821115620003b5578283fd5b620003c389838a01620002a6565b94506060880151915080821115620003d9578283fd5b50620003e888828901620002a6565b925050620003f96080870162000289565b90509295509295909350565b60208082526026908201527f4f776e61626c653a206e6577206f776e657220697320746865207a65726f206160408201526564647265737360d01b606082015260800190565b6020808252818101527f4f776e61626c653a2063616c6c6572206973206e6f7420746865206f776e6572604082015260600190565b6002810460018216806200049557607f821691505b60208210811415620004b757634e487b7160e01b600052602260045260246000fd5b50919050565b634e487b7160e01b600052604160045260246000fd5b6120ed80620004e36000396000f3fe608060405234801561001057600080fd5b506004361061018e5760003560e01c80636c0360eb116100de578063a22cb46511610097578063b88d4fde11610071578063b88d4fde14610311578063c87b56dd14610324578063e985e9c514610337578063f2fde38b1461034a5761018e565b8063a22cb465146102ee578063a5097ebf14610301578063abc8c7af146103095761018e565b80636c0360eb146102b357806370a08231146102bb578063715018a6146102ce57806382e94ac5146102d65780638da5cb5b146102de57806395d89b41146102e65761018e565b806323b872dd1161014b57806342842e0e1161012557806342842e0e146102675780634f6ccce71461027a578063510b51581461028d5780636352211e146102a05761018e565b806323b872dd1461022e5780632f745c59146102415780633a886180146102545761018e565b806301ffc9a71461019357806306fdde03146101bc578063081812fc146101d1578063095ea7b3146101f157806318160ddd146102065780631af9cf491461021b575b600080fd5b6101a66101a13660046117e9565b61035d565b6040516101b3919061197a565b60405180910390f35b6101c461038a565b6040516101b39190611985565b6101e46101df3660046118b6565b61041c565b6040516101b39190611929565b6102046101ff3660046117c0565b610468565b005b61020e610500565b6040516101b39190611f7d565b61020e6102293660046118b6565b610506565b61020461023c36600461167f565b610518565b61020e61024f3660046117c0565b610550565b61020e610262366004611821565b6105a2565b61020461027536600461167f565b6106ba565b61020e6102883660046118b6565b6106d5565b6101e461029b3660046118b6565b610730565b6101e46102ae3660046118b6565b61074b565b6101c4610780565b61020e6102c9366004611633565b61080e565b610204610852565b61020461089d565b6101e46108eb565b6101c46108fa565b6102046102fc366004611786565b610909565b6101c46109d7565b6101e46109e6565b61020461031f3660046116ba565b6109f5565b6101c46103323660046118b6565b610a34565b6101a661034536600461164d565b610b55565b610204610358366004611633565b610b83565b60006001600160e01b0319821663780e9d6360e01b1480610382575061038282610bf4565b90505b919050565b60606000805461039990611ff5565b80601f01602080910402602001604051908101604052809291908181526020018280546103c590611ff5565b80156104125780601f106103e757610100808354040283529160200191610412565b820191906000526020600020905b8154815290600101906020018083116103f557829003601f168201915b5050505050905090565b600061042782610c34565b61044c5760405162461bcd60e51b815260040161044390611d86565b60405180910390fd5b506000908152600460205260409020546001600160a01b031690565b60006104738261074b565b9050806001600160a01b0316836001600160a01b031614156104a75760405162461bcd60e51b815260040161044390611e9f565b806001600160a01b03166104b9610c51565b6001600160a01b031614806104d557506104d581610345610c51565b6104f15760405162461bcd60e51b815260040161044390611bc2565b6104fb8383610c55565b505050565b60085490565b6000908152600e602052604090205490565b610529610523610c51565b82610cc3565b6105455760405162461bcd60e51b815260040161044390611ee0565b6104fb838383610d40565b600061055b8361080e565b82106105795760405162461bcd60e51b815260040161044390611998565b506001600160a01b03919091166000908152600660209081526040808320938352929052205490565b60006105ac6108eb565b6001600160a01b0316336001600160a01b03161480610607575060105460ff161580156105e35750600c546001600160a01b031633145b801561060757506105f26108eb565b6001600160a01b0316846001600160a01b0316145b6106235760405162461bcd60e51b815260040161044390611b79565b600061062d610500565b90506106398482610e6d565b6106798188888080601f016020809104026020016040519081016040528093929190818152602001838380828437600092019190915250610f4c92505050565b6000818152600f6020908152604080832080546001600160a01b038a166001600160a01b0319909116179055600e9091529020839055905095945050505050565b6104fb838383604051806020016040528060008152506109f5565b60006106df610500565b82106106fd5760405162461bcd60e51b815260040161044390611f31565b6008828154811061071e57634e487b7160e01b600052603260045260246000fd5b90600052602060002001549050919050565b6000908152600f60205260409020546001600160a01b031690565b6000818152600260205260408120546001600160a01b0316806103825760405162461bcd60e51b815260040161044390611c69565b6011805461078d90611ff5565b80601f01602080910402602001604051908101604052809291908181526020018280546107b990611ff5565b80156108065780601f106107db57610100808354040283529160200191610806565b820191906000526020600020905b8154815290600101906020018083116107e957829003601f168201915b505050505081565b60006001600160a01b0382166108365760405162461bcd60e51b815260040161044390611c1f565b506001600160a01b031660009081526003602052604090205490565b61085a610c51565b6001600160a01b031661086b6108eb565b6001600160a01b0316146108915760405162461bcd60e51b815260040161044390611dd2565b61089b6000610f90565b565b6108a5610c51565b6001600160a01b03166108b66108eb565b6001600160a01b0316146108dc5760405162461bcd60e51b815260040161044390611dd2565b6010805460ff19166001179055565b600a546001600160a01b031690565b60606001805461039990611ff5565b610911610c51565b6001600160a01b0316826001600160a01b031614156109425760405162461bcd60e51b815260040161044390611af6565b806005600061094f610c51565b6001600160a01b03908116825260208083019390935260409182016000908120918716808252919093529120805460ff191692151592909217909155610993610c51565b6001600160a01b03167f17307eab39ab6107e8899845ad3d59bd9653f200f220920489ca2b5937696c31836040516109cb919061197a565b60405180910390a35050565b6060600b805461039990611ff5565b600c546001600160a01b031690565b610a06610a00610c51565b83610cc3565b610a225760405162461bcd60e51b815260040161044390611ee0565b610a2e84848484610fe2565b50505050565b6060610a3f82610c34565b610a5b5760405162461bcd60e51b815260040161044390611d35565b6000828152600d602052604081208054610a7490611ff5565b80601f0160208091040260200160405190810160405280929190818152602001828054610aa090611ff5565b8015610aed5780601f10610ac257610100808354040283529160200191610aed565b820191906000526020600020905b815481529060010190602001808311610ad057829003601f168201915b505050505090506000610afe611015565b9050805160001415610b1257509050610385565b815115610b44578082604051602001610b2c9291906118fa565b60405160208183030381529060405292505050610385565b610b4d84611024565b949350505050565b6001600160a01b03918216600090815260056020908152604080832093909416825291909152205460ff1690565b610b8b610c51565b6001600160a01b0316610b9c6108eb565b6001600160a01b031614610bc25760405162461bcd60e51b815260040161044390611dd2565b6001600160a01b038116610be85760405162461bcd60e51b815260040161044390611a35565b610bf181610f90565b50565b60006001600160e01b031982166380ac58cd60e01b1480610c2557506001600160e01b03198216635b5e139f60e01b145b806103825750610382826110a7565b6000908152600260205260409020546001600160a01b0316151590565b3390565b600081815260046020526040902080546001600160a01b0319166001600160a01b0384169081179091558190610c8a8261074b565b6001600160a01b03167f8c5be1e5ebec7d5bd14f71427d1e84f3dd0314c0f7b2291e5b200ac8c7c3b92560405160405180910390a45050565b6000610cce82610c34565b610cea5760405162461bcd60e51b815260040161044390611b2d565b6000610cf58361074b565b9050806001600160a01b0316846001600160a01b03161480610d305750836001600160a01b0316610d258461041c565b6001600160a01b0316145b80610b4d5750610b4d8185610b55565b826001600160a01b0316610d538261074b565b6001600160a01b031614610d795760405162461bcd60e51b815260040161044390611e07565b6001600160a01b038216610d9f5760405162461bcd60e51b815260040161044390611ab2565b610daa8383836110c0565b610db5600082610c55565b6001600160a01b0383166000908152600360205260408120805460019290610dde908490611fb2565b90915550506001600160a01b0382166000908152600360205260408120805460019290610e0c908490611f86565b909155505060008181526002602052604080822080546001600160a01b0319166001600160a01b0386811691821790925591518493918716917fddf252ad1be2c89b69c2b068fc378daa952ba7f163c4a11628f55a4df523b3ef91a4505050565b6001600160a01b038216610e935760405162461bcd60e51b815260040161044390611d00565b610e9c81610c34565b15610eb95760405162461bcd60e51b815260040161044390611a7b565b610ec5600083836110c0565b6001600160a01b0382166000908152600360205260408120805460019290610eee908490611f86565b909155505060008181526002602052604080822080546001600160a01b0319166001600160a01b03861690811790915590518392907fddf252ad1be2c89b69c2b068fc378daa952ba7f163c4a11628f55a4df523b3ef908290a45050565b610f5582610c34565b610f715760405162461bcd60e51b815260040161044390611cb2565b6000828152600d6020908152604090912082516104fb92840190611583565b600a80546001600160a01b038381166001600160a01b0319831681179093556040519116919082907f8be0079c531659141344cd1fd0a4f28419497f9722a3daafe3b4186f6b6457e090600090a35050565b610fed848484610d40565b610ff984848484611149565b610a2e5760405162461bcd60e51b8152600401610443906119e3565b60606011805461039990611ff5565b606061102f82610c34565b61104b5760405162461bcd60e51b815260040161044390611e50565b6000611055611015565b9050600081511161107557604051806020016040528060008152506110a0565b8061107f84611264565b6040516020016110909291906118fa565b6040516020818303038152906040525b9392505050565b6001600160e01b031981166301ffc9a760e01b14919050565b6110cb8383836104fb565b6001600160a01b0383166110e7576110e28161137f565b61110a565b816001600160a01b0316836001600160a01b03161461110a5761110a83826113c3565b6001600160a01b0382166111265761112181611460565b6104fb565b826001600160a01b0316826001600160a01b0316146104fb576104fb8282611539565b600061115d846001600160a01b031661157d565b1561125957836001600160a01b031663150b7a02611179610c51565b8786866040518563ffffffff1660e01b815260040161119b949392919061193d565b602060405180830381600087803b1580156111b557600080fd5b505af19250505080156111e5575060408051601f3d908101601f191682019092526111e291810190611805565b60015b61123f573d808015611213576040519150601f19603f3d011682016040523d82523d6000602084013e611218565b606091505b5080516112375760405162461bcd60e51b8152600401610443906119e3565b805181602001fd5b6001600160e01b031916630a85bd0160e11b149050610b4d565b506001949350505050565b60608161128957506040805180820190915260018152600360fc1b6020820152610385565b8160005b81156112b3578061129d81612030565b91506112ac9050600a83611f9e565b915061128d565b60008167ffffffffffffffff8111156112dc57634e487b7160e01b600052604160045260246000fd5b6040519080825280601f01601f191660200182016040528015611306576020820181803683370190505b5090505b8415610b4d5761131b600183611fb2565b9150611328600a8661204b565b611333906030611f86565b60f81b81838151811061135657634e487b7160e01b600052603260045260246000fd5b60200101906001600160f81b031916908160001a905350611378600a86611f9e565b945061130a565b600880546000838152600960205260408120829055600182018355919091527ff3f7a9fe364faab93b216da50a3214154f22a0a2b415b23a84c8169e8b636ee30155565b600060016113d08461080e565b6113da9190611fb2565b60008381526007602052604090205490915080821461142d576001600160a01b03841660009081526006602090815260408083208584528252808320548484528184208190558352600790915290208190555b5060009182526007602090815260408084208490556001600160a01b039094168352600681528383209183525290812055565b60085460009061147290600190611fb2565b600083815260096020526040812054600880549394509092849081106114a857634e487b7160e01b600052603260045260246000fd5b9060005260206000200154905080600883815481106114d757634e487b7160e01b600052603260045260246000fd5b600091825260208083209091019290925582815260099091526040808220849055858252812055600880548061151d57634e487b7160e01b600052603160045260246000fd5b6001900381819060005260206000200160009055905550505050565b60006115448361080e565b6001600160a01b039093166000908152600660209081526040808320868452825280832085905593825260079052919091209190915550565b3b151590565b82805461158f90611ff5565b90600052602060002090601f0160209004810192826115b157600085556115f7565b82601f106115ca57805160ff19168380011785556115f7565b828001600101855582156115f7579182015b828111156115f75782518255916020019190600101906115dc565b50611603929150611607565b5090565b5b808211156116035760008155600101611608565b80356001600160a01b038116811461038557600080fd5b600060208284031215611644578081fd5b6110a08261161c565b6000806040838503121561165f578081fd5b6116688361161c565b91506116766020840161161c565b90509250929050565b600080600060608486031215611693578081fd5b61169c8461161c565b92506116aa6020850161161c565b9150604084013590509250925092565b600080600080608085870312156116cf578081fd5b6116d88561161c565b935060206116e781870161161c565b935060408601359250606086013567ffffffffffffffff8082111561170a578384fd5b818801915088601f83011261171d578384fd5b81358181111561172f5761172f61208b565b604051601f8201601f19168101850183811182821017156117525761175261208b565b60405281815283820185018b1015611768578586fd5b81858501868301379081019093019390935250939692955090935050565b60008060408385031215611798578182fd5b6117a18361161c565b9150602083013580151581146117b5578182fd5b809150509250929050565b600080604083850312156117d2578182fd5b6117db8361161c565b946020939093013593505050565b6000602082840312156117fa578081fd5b81356110a0816120a1565b600060208284031215611816578081fd5b81516110a0816120a1565b600080600080600060808688031215611838578081fd5b853567ffffffffffffffff8082111561184f578283fd5b818801915088601f830112611862578283fd5b813581811115611870578384fd5b896020828501011115611881578384fd5b602092830197509550611897918801905061161c565b92506118a56040870161161c565b949793965091946060013592915050565b6000602082840312156118c7578081fd5b5035919050565b600081518084526118e6816020860160208601611fc9565b601f01601f19169290920160200192915050565b6000835161190c818460208801611fc9565b835190830190611920818360208801611fc9565b01949350505050565b6001600160a01b0391909116815260200190565b6001600160a01b0385811682528416602082015260408101839052608060608201819052600090611970908301846118ce565b9695505050505050565b901515815260200190565b6000602082526110a060208301846118ce565b6020808252602b908201527f455243373231456e756d657261626c653a206f776e657220696e646578206f7560408201526a74206f6620626f756e647360a81b606082015260800190565b60208082526032908201527f4552433732313a207472616e7366657220746f206e6f6e20455243373231526560408201527131b2b4bb32b91034b6b83632b6b2b73a32b960711b606082015260800190565b60208082526026908201527f4f776e61626c653a206e6577206f776e657220697320746865207a65726f206160408201526564647265737360d01b606082015260800190565b6020808252601c908201527f4552433732313a20746f6b656e20616c7265616479206d696e74656400000000604082015260600190565b60208082526024908201527f4552433732313a207472616e7366657220746f20746865207a65726f206164646040820152637265737360e01b606082015260800190565b60208082526019908201527f4552433732313a20617070726f766520746f2063616c6c657200000000000000604082015260600190565b6020808252602c908201527f4552433732313a206f70657261746f7220717565727920666f72206e6f6e657860408201526b34b9ba32b73a103a37b5b2b760a11b606082015260800190565b60208082526029908201527f4552433732314d61726b6574706c6163653a204e6f207065726d697373696f6e6040820152681cc81d1bc81b5a5b9d60ba1b606082015260800190565b60208082526038908201527f4552433732313a20617070726f76652063616c6c6572206973206e6f74206f7760408201527f6e6572206e6f7220617070726f76656420666f7220616c6c0000000000000000606082015260800190565b6020808252602a908201527f4552433732313a2062616c616e636520717565727920666f7220746865207a65604082015269726f206164647265737360b01b606082015260800190565b60208082526029908201527f4552433732313a206f776e657220717565727920666f72206e6f6e657869737460408201526832b73a103a37b5b2b760b91b606082015260800190565b6020808252602e908201527f45524337323155524953746f726167653a2055524920736574206f66206e6f6e60408201526d32bc34b9ba32b73a103a37b5b2b760911b606082015260800190565b6020808252818101527f4552433732313a206d696e7420746f20746865207a65726f2061646472657373604082015260600190565b60208082526031908201527f45524337323155524953746f726167653a2055524920717565727920666f72206040820152703737b732bc34b9ba32b73a103a37b5b2b760791b606082015260800190565b6020808252602c908201527f4552433732313a20617070726f76656420717565727920666f72206e6f6e657860408201526b34b9ba32b73a103a37b5b2b760a11b606082015260800190565b6020808252818101527f4f776e61626c653a2063616c6c6572206973206e6f7420746865206f776e6572604082015260600190565b60208082526029908201527f4552433732313a207472616e73666572206f6620746f6b656e2074686174206960408201526839903737ba1037bbb760b91b606082015260800190565b6020808252602f908201527f4552433732314d657461646174613a2055524920717565727920666f72206e6f60408201526e3732bc34b9ba32b73a103a37b5b2b760891b606082015260800190565b60208082526021908201527f4552433732313a20617070726f76616c20746f2063757272656e74206f776e656040820152603960f91b606082015260800190565b60208082526031908201527f4552433732313a207472616e736665722063616c6c6572206973206e6f74206f6040820152701ddb995c881b9bdc88185c1c1c9bdd9959607a1b606082015260800190565b6020808252602c908201527f455243373231456e756d657261626c653a20676c6f62616c20696e646578206f60408201526b7574206f6620626f756e647360a01b606082015260800190565b90815260200190565b60008219821115611f9957611f9961205f565b500190565b600082611fad57611fad612075565b500490565b600082821015611fc457611fc461205f565b500390565b60005b83811015611fe4578181015183820152602001611fcc565b83811115610a2e5750506000910152565b60028104600182168061200957607f821691505b6020821081141561202a57634e487b7160e01b600052602260045260246000fd5b50919050565b60006000198214156120445761204461205f565b5060010190565b60008261205a5761205a612075565b500690565b634e487b7160e01b600052601160045260246000fd5b634e487b7160e01b600052601260045260246000fd5b634e487b7160e01b600052604160045260246000fd5b6001600160e01b031981168114610bf157600080fdfea26469706673582212206676ebf158c0ab8f6440a7172a1f838a1a43b6fa78be51172cf29a0e48f1137464736f6c63430008000033",
  "linkReferences": {},
  "deployedLinkReferences": {}
}