{
  "_format": "hh-sol-artifact-1",
  "contractName": "Marketplace",
  "sourceName": "contracts/space/Marketplace.sol",
  "abi": [
    {
      "anonymous": false,
      "inputs": [
        {
          "indexed": true,
          "internalType": "address",
          "name": "collection",
          "type": "address"
        },
        {
          "indexed": true,
          "internalType": "uint256",
          "name": "tokenId",
          "type": "uint256"
        },
        {
          "indexed": true,
          "internalType": "address",
          "name": "bidder",
          "type": "address"
        },
        {
          "indexed": false,
          "internalType": "uint256",
          "name": "amount",
          "type": "uint256"
        },
        {
          "indexed": false,
          "internalType": "uint256",
          "name": "blockTimestamp",
          "type": "uint256"
        }
      ],
      "name": "AuctionBid",
      "type": "event"
    },
    {
      "anonymous": false,
      "inputs": [
        {
          "indexed": false,
          "internalType": "uint256",
          "name": "newAuctionStep",
          "type": "uint256"
        }
      ],
      "name": "AuctionStepChanged",
      "type": "event"
    },
    {
      "anonymous": false,
      "inputs": [
        {
          "indexed": true,
          "internalType": "address",
          "name": "collection",
          "type": "address"
        },
        {
          "indexed": true,
          "internalType": "address",
          "name": "creator",
          "type": "address"
        },
        {
          "indexed": true,
          "internalType": "string",
          "name": "name",
          "type": "string"
        },
        {
          "indexed": false,
          "internalType": "string",
          "name": "symbol",
          "type": "string"
        }
      ],
      "name": "CollectionCreated",
      "type": "event"
    },
    {
      "anonymous": false,
      "inputs": [
        {
          "indexed": true,
          "internalType": "address",
          "name": "collection",
          "type": "address"
        }
      ],
      "name": "CollectionImported",
      "type": "event"
    },
    {
      "anonymous": false,
      "inputs": [
        {
          "indexed": false,
          "internalType": "uint256",
          "name": "newGracePeriod",
          "type": "uint256"
        }
      ],
      "name": "GracePeriodChanged",
      "type": "event"
    },
    {
      "anonymous": false,
      "inputs": [
        {
          "indexed": true,
          "internalType": "address",
          "name": "collection",
          "type": "address"
        },
        {
          "indexed": true,
          "internalType": "uint256",
          "name": "tokenId",
          "type": "uint256"
        },
        {
          "indexed": true,
          "internalType": "enum IMarketplace.ListingType",
          "name": "listingType",
          "type": "uint8"
        },
        {
          "indexed": false,
          "internalType": "uint256",
          "name": "minimalBid",
          "type": "uint256"
        },
        {
          "indexed": false,
          "internalType": "uint256",
          "name": "blockNum",
          "type": "uint256"
        }
      ],
      "name": "ListingStarted",
      "type": "event"
    },
    {
      "anonymous": false,
      "inputs": [
        {
          "indexed": true,
          "internalType": "address",
          "name": "collection",
          "type": "address"
        },
        {
          "indexed": true,
          "internalType": "uint256",
          "name": "tokenId",
          "type": "uint256"
        },
        {
          "indexed": true,
          "internalType": "address",
          "name": "newOwner",
          "type": "address"
        },
        {
          "indexed": false,
          "internalType": "uint256",
          "name": "payed",
          "type": "uint256"
        }
      ],
      "name": "NFTClaimed",
      "type": "event"
    },
    {
      "anonymous": false,
      "inputs": [
        {
          "indexed": true,
          "internalType": "address",
          "name": "collection",
          "type": "address"
        },
        {
          "indexed": true,
          "internalType": "uint256",
          "name": "tokenId",
          "type": "uint256"
        },
        {
          "indexed": true,
          "internalType": "address",
          "name": "newOwner",
          "type": "address"
        },
        {
          "indexed": false,
          "internalType": "uint256",
          "name": "payed",
          "type": "uint256"
        }
      ],
      "name": "NFTPurchased",
      "type": "event"
    },
    {
      "anonymous": false,
      "inputs": [
        {
          "indexed": true,
          "internalType": "address",
          "name": "collection",
          "type": "address"
        },
        {
          "indexed": true,
          "internalType": "uint256",
          "name": "tokenId",
          "type": "uint256"
        },
        {
          "indexed": true,
          "internalType": "address",
          "name": "recipient",
          "type": "address"
        }
      ],
      "name": "NFTReturnedFromSale",
      "type": "event"
    },
    {
      "anonymous": false,
      "inputs": [
        {
          "indexed": true,
          "internalType": "address",
          "name": "previousOwner",
          "type": "address"
        },
        {
          "indexed": true,
          "internalType": "address",
          "name": "newOwner",
          "type": "address"
        }
      ],
      "name": "OwnershipTransferred",
      "type": "event"
    },
    {
      "anonymous": false,
      "inputs": [
        {
          "indexed": false,
          "internalType": "address",
          "name": "recipient",
          "type": "address"
        },
        {
          "indexed": false,
          "internalType": "uint256",
          "name": "amount",
          "type": "uint256"
        }
      ],
      "name": "UnreturnedBidsClaimed",
      "type": "event"
    },
    {
      "inputs": [],
      "name": "MAX_ROYALTY",
      "outputs": [
        {
          "internalType": "uint256",
          "name": "",
          "type": "uint256"
        }
      ],
      "stateMutability": "view",
      "type": "function"
    },
    {
      "inputs": [],
      "name": "allCollectionsLength",
      "outputs": [
        {
          "internalType": "uint256",
          "name": "",
          "type": "uint256"
        }
      ],
      "stateMutability": "view",
      "type": "function"
    },
    {
      "inputs": [],
      "name": "allExternalCollectionsLength",
      "outputs": [
        {
          "internalType": "uint256",
          "name": "",
          "type": "uint256"
        }
      ],
      "stateMutability": "view",
      "type": "function"
    },
    {
      "inputs": [],
      "name": "auctionStep",
      "outputs": [
        {
          "internalType": "uint256",
          "name": "",
          "type": "uint256"
        }
      ],
      "stateMutability": "view",
      "type": "function"
    },
    {
      "inputs": [
        {
          "internalType": "address",
          "name": "collection",
          "type": "address"
        },
        {
          "internalType": "uint256",
          "name": "tokenId",
          "type": "uint256"
        }
      ],
      "name": "bid",
      "outputs": [],
      "stateMutability": "payable",
      "type": "function"
    },
    {
      "inputs": [
        {
          "internalType": "address",
          "name": "collection",
          "type": "address"
        },
        {
          "internalType": "uint256",
          "name": "tokenId",
          "type": "uint256"
        }
      ],
      "name": "claimNFT",
      "outputs": [],
      "stateMutability": "nonpayable",
      "type": "function"
    },
    {
      "inputs": [],
      "name": "claimUnreturnedBids",
      "outputs": [],
      "stateMutability": "nonpayable",
      "type": "function"
    },
    {
      "inputs": [
        {
          "internalType": "string",
          "name": "collectionURI",
          "type": "string"
        },
        {
          "internalType": "string",
          "name": "name",
          "type": "string"
        },
        {
          "internalType": "string",
          "name": "symbol",
          "type": "string"
        }
      ],
      "name": "createCollection",
      "outputs": [
        {
          "internalType": "address",
          "name": "collection",
          "type": "address"
        }
      ],
      "stateMutability": "nonpayable",
      "type": "function"
    },
    {
      "inputs": [
        {
          "internalType": "address",
          "name": "collection",
          "type": "address"
        },
        {
          "internalType": "string",
          "name": "tokenURI",
          "type": "string"
        },
        {
          "internalType": "uint256",
          "name": "timeStart",
          "type": "uint256"
        },
        {
          "internalType": "uint256",
          "name": "duration",
          "type": "uint256"
        },
        {
          "internalType": "uint256",
          "name": "minimalBid",
          "type": "uint256"
        },
        {
          "internalType": "uint256",
          "name": "royalty",
          "type": "uint256"
        }
      ],
      "name": "createNFTWithAuction",
      "outputs": [],
      "stateMutability": "nonpayable",
      "type": "function"
    },
    {
      "inputs": [
        {
          "internalType": "address",
          "name": "collection",
          "type": "address"
        },
        {
          "internalType": "string",
          "name": "tokenURI",
          "type": "string"
        },
        {
          "internalType": "uint256",
          "name": "timeStart",
          "type": "uint256"
        },
        {
          "internalType": "uint256",
          "name": "duration",
          "type": "uint256"
        },
        {
          "internalType": "uint256",
          "name": "value",
          "type": "uint256"
        },
        {
          "internalType": "uint256",
          "name": "royalty",
          "type": "uint256"
        }
      ],
      "name": "createNFTWithFixedPrice",
      "outputs": [],
      "stateMutability": "nonpayable",
      "type": "function"
    },
    {
      "inputs": [
        {
          "internalType": "uint256",
          "name": "index",
          "type": "uint256"
        }
      ],
      "name": "getCollection",
      "outputs": [
        {
          "internalType": "address",
          "name": "",
          "type": "address"
        }
      ],
      "stateMutability": "view",
      "type": "function"
    },
    {
      "inputs": [
        {
          "internalType": "uint256",
          "name": "index",
          "type": "uint256"
        }
      ],
      "name": "getExternalCollection",
      "outputs": [
        {
          "internalType": "address",
          "name": "",
          "type": "address"
        }
      ],
      "stateMutability": "view",
      "type": "function"
    },
    {
      "inputs": [
        {
          "internalType": "address",
          "name": "collection",
          "type": "address"
        },
        {
          "internalType": "uint256",
          "name": "tokenId",
          "type": "uint256"
        }
      ],
      "name": "getListingInfo",
      "outputs": [
        {
          "components": [
            {
              "internalType": "uint256",
              "name": "blockOfCreation",
              "type": "uint256"
            },
            {
              "internalType": "uint256",
              "name": "timeStart",
              "type": "uint256"
            },
            {
              "internalType": "uint256",
              "name": "duration",
              "type": "uint256"
            },
            {
              "internalType": "uint256",
              "name": "minimalBid",
              "type": "uint256"
            },
            {
              "internalType": "uint256",
              "name": "lastBid",
              "type": "uint256"
            },
            {
              "internalType": "address",
              "name": "lastBidder",
              "type": "address"
            },
            {
              "internalType": "address",
              "name": "creator",
              "type": "address"
            },
            {
              "internalType": "enum IMarketplace.ListingType",
              "name": "listingType",
              "type": "uint8"
            }
          ],
          "internalType": "struct IMarketplace.ListingInfo",
          "name": "",
          "type": "tuple"
        }
      ],
      "stateMutability": "view",
      "type": "function"
    },
    {
      "inputs": [
        {
          "internalType": "address",
          "name": "collection",
          "type": "address"
        },
        {
          "internalType": "uint256",
          "name": "tokenId",
          "type": "uint256"
        }
      ],
      "name": "getListingStatus",
      "outputs": [
        {
          "internalType": "enum IMarketplace.ListingStatus",
          "name": "",
          "type": "uint8"
        }
      ],
      "stateMutability": "view",
      "type": "function"
    },
    {
      "inputs": [
        {
          "internalType": "address",
          "name": "collection",
          "type": "address"
        },
        {
          "internalType": "uint256",
          "name": "tokenId",
          "type": "uint256"
        }
      ],
      "name": "getListingType",
      "outputs": [
        {
          "internalType": "enum IMarketplace.ListingType",
          "name": "",
          "type": "uint8"
        }
      ],
      "stateMutability": "view",
      "type": "function"
    },
    {
      "inputs": [],
      "name": "gracePeriod",
      "outputs": [
        {
          "internalType": "uint256",
          "name": "",
          "type": "uint256"
        }
      ],
      "stateMutability": "view",
      "type": "function"
    },
    {
      "inputs": [
        {
          "internalType": "address",
          "name": "collection",
          "type": "address"
        }
      ],
      "name": "importCollection",
      "outputs": [],
      "stateMutability": "nonpayable",
      "type": "function"
    },
    {
      "inputs": [
        {
          "internalType": "uint256",
          "name": "auctionStep",
          "type": "uint256"
        },
        {
          "internalType": "uint256",
          "name": "gracePeriod",
          "type": "uint256"
        }
      ],
      "name": "initialize",
      "outputs": [],
      "stateMutability": "nonpayable",
      "type": "function"
    },
    {
      "inputs": [],
      "name": "owner",
      "outputs": [
        {
          "internalType": "address",
          "name": "",
          "type": "address"
        }
      ],
      "stateMutability": "view",
      "type": "function"
    },
    {
      "inputs": [
        {
          "internalType": "address",
          "name": "collection",
          "type": "address"
        },
        {
          "internalType": "uint256",
          "name": "tokenId",
          "type": "uint256"
        }
      ],
      "name": "purchase",
      "outputs": [],
      "stateMutability": "payable",
      "type": "function"
    },
    {
      "inputs": [],
      "name": "renounceOwnership",
      "outputs": [],
      "stateMutability": "nonpayable",
      "type": "function"
    },
    {
      "inputs": [
        {
          "internalType": "address",
          "name": "collection",
          "type": "address"
        },
        {
          "internalType": "uint256",
          "name": "tokenId",
          "type": "uint256"
        }
      ],
      "name": "returnFromSale",
      "outputs": [],
      "stateMutability": "nonpayable",
      "type": "function"
    },
    {
      "inputs": [
        {
          "internalType": "uint256",
          "name": "newAuctionStep",
          "type": "uint256"
        }
      ],
      "name": "setAuctionStep",
      "outputs": [],
      "stateMutability": "nonpayable",
      "type": "function"
    },
    {
      "inputs": [
        {
          "internalType": "uint256",
          "name": "newGracePeriod",
          "type": "uint256"
        }
      ],
      "name": "setGracePeriod",
      "outputs": [],
      "stateMutability": "nonpayable",
      "type": "function"
    },
    {
      "inputs": [
        {
          "internalType": "address",
          "name": "collection",
          "type": "address"
        },
        {
          "internalType": "uint256",
          "name": "tokenId",
          "type": "uint256"
        },
        {
          "internalType": "uint256",
          "name": "timeStart",
          "type": "uint256"
        },
        {
          "internalType": "uint256",
          "name": "duration",
          "type": "uint256"
        },
        {
          "internalType": "uint256",
          "name": "minimalBid",
          "type": "uint256"
        }
      ],
      "name": "startAuction",
      "outputs": [],
      "stateMutability": "nonpayable",
      "type": "function"
    },
    {
      "inputs": [
        {
          "internalType": "address",
          "name": "collection",
          "type": "address"
        },
        {
          "internalType": "uint256",
          "name": "tokenId",
          "type": "uint256"
        },
        {
          "internalType": "uint256",
          "name": "timeStart",
          "type": "uint256"
        },
        {
          "internalType": "uint256",
          "name": "duration",
          "type": "uint256"
        },
        {
          "internalType": "uint256",
          "name": "value",
          "type": "uint256"
        }
      ],
      "name": "startFixedPrice",
      "outputs": [],
      "stateMutability": "nonpayable",
      "type": "function"
    },
    {
      "inputs": [
        {
          "internalType": "address",
          "name": "collection",
          "type": "address"
        },
        {
          "internalType": "uint256",
          "name": "tokenId",
          "type": "uint256"
        }
      ],
      "name": "stopListing",
      "outputs": [],
      "stateMutability": "nonpayable",
      "type": "function"
    },
    {
      "inputs": [
        {
          "internalType": "address",
          "name": "newOwner",
          "type": "address"
        }
      ],
      "name": "transferOwnership",
      "outputs": [],
      "stateMutability": "nonpayable",
      "type": "function"
    },
    {
      "inputs": [
        {
          "internalType": "address",
          "name": "",
          "type": "address"
        }
      ],
      "name": "unreturnedBids",
      "outputs": [
        {
          "internalType": "uint256",
          "name": "",
          "type": "uint256"
        }
      ],
      "stateMutability": "view",
      "type": "function"
    }
  ],
  "bytecode": "0x608060405234801561001057600080fd5b50615b3d806100206000396000f3fe608060405260043610620001ee5760003560e01c80639fce57ec116200010f578063e02ecdc611620000a3578063ee3a897a116200006d578063ee3a897a146200056f578063f2f659601462000587578063f2fde38b14620005ac578063fac2b9c514620005d157620001ee565b8063e02ecdc614620004cc578063e4a3011614620004f1578063e50d020b1462000516578063ece86c21146200054a57620001ee565b8063b650647f11620000e5578063b650647f1462000445578063d7795c23146200046a578063d83e5f4d146200048f578063df673fa014620004a757620001ee565b80639fce57ec14620003f0578063a06db7dc1462000408578063b49e1b07146200042057620001ee565b80635a1f3c2811620001875780636dd2ac84116200015d5780636dd2ac841462000384578063715018a614620003a95780638da5cb5b14620003c15780638de9322214620003d957620001ee565b80635a1f3c2814620002f75780635b860d58146200032b5780635ff284bb146200035f57620001ee565b80633d759a9211620001c95780633d759a92146200026f5780635090cfca1462000287578063549f674614620002ac57806359d667a514620002e057620001ee565b8063047fd4e714620001f35780630bf209e6146200021a57806333a10cc1146200024a575b600080fd5b3480156200020057600080fd5b50620002186200021236600462002b13565b620005f6565b005b3480156200022757600080fd5b506200023262000710565b60405162000241919062003466565b60405180910390f35b3480156200025757600080fd5b50620002186200026936600462002bd4565b62000716565b3480156200027c57600080fd5b506200023262000957565b3480156200029457600080fd5b5062000218620002a636600462002bd4565b6200095d565b348015620002b957600080fd5b50620002d1620002cb36600462002bd4565b62000b4d565b60405162000241919062002e4b565b62000218620002f136600462002bd4565b62000b64565b3480156200030457600080fd5b506200031c6200031636600462002ce8565b62001153565b60405162000241919062002d90565b3480156200033857600080fd5b50620003506200034a36600462002bd4565b62001192565b604051620002419190620033f4565b3480156200036c57600080fd5b50620002186200037e36600462002b58565b6200126f565b3480156200039157600080fd5b5062000218620003a336600462002c02565b62001368565b348015620003b657600080fd5b506200021862001619565b348015620003ce57600080fd5b506200031c6200166d565b62000218620003ea36600462002bd4565b6200167c565b348015620003fd57600080fd5b506200023262001b99565b3480156200041557600080fd5b506200023262001b9f565b3480156200042d57600080fd5b50620002186200043f36600462002ce8565b62001ba5565b3480156200045257600080fd5b50620002326200046436600462002b13565b62001c2d565b3480156200047757600080fd5b50620002186200048936600462002c02565b62001c3f565b3480156200049c57600080fd5b506200023262001ef0565b348015620004b457600080fd5b5062000218620004c636600462002bd4565b62001efc565b348015620004d957600080fd5b5062000218620004eb36600462002b58565b62002191565b348015620004fe57600080fd5b50620002186200051036600462002d1a565b62002280565b3480156200052357600080fd5b506200053b6200053536600462002bd4565b62002325565b60405162000241919062002e68565b3480156200055757600080fd5b506200031c6200056936600462002c48565b6200235a565b3480156200057c57600080fd5b50620002186200247f565b3480156200059457600080fd5b5062000218620005a636600462002ce8565b62002571565b348015620005b957600080fd5b5062000218620005cb36600462002b13565b620025ee565b348015620005de57600080fd5b506200031c620005f036600462002ce8565b6200266b565b620006006200268f565b6001600160a01b0316620006136200166d565b6001600160a01b031614620006455760405162461bcd60e51b81526004016200063c906200320e565b60405180910390fd5b6001600160a01b0381166000908152609a602052604090205460ff1615620006815760405162461bcd60e51b81526004016200063c90620032e4565b609c805460018082019092557faf85b9071dfafeac1409d3f1d19bafc9bc7c37974cde8df0ee6168f0086e539c0180546001600160a01b0319166001600160a01b0384169081179091556000818152609a6020526040808220805460ff1916909417909355915190917f3ad0416b4211727acd05bb5a6146138ff2021f4ae88f7cf8a262d99d93abdf0791a250565b60975490565b600260655414156200073c5760405162461bcd60e51b81526004016200063c9062003376565b600260658190556200074f838362002693565b60038111156200076f57634e487b7160e01b600052602160045260246000fd5b146200078f5760405162461bcd60e51b81526004016200063c9062002ed0565b6001600160a01b038281166000908152609e602090815260408083208584528252808320815161010081018352815481526001808301549482019490945260028201549281019290925260038101546060830152600481015460808301526005810154851660a0830152600681015494851660c0830152929390929160e0840191600160a01b900460ff16908111156200083957634e487b7160e01b600052602160045260246000fd5b60018111156200085957634e487b7160e01b600052602160045260246000fd5b90525060a08101519091506001600160a01b031633146200088e5760405162461bcd60e51b81526004016200063c9062002fa1565b60a08101516040516323b872dd60e01b81526001600160a01b038516916323b872dd91620008c3913091879060040162002da4565b600060405180830381600087803b158015620008de57600080fd5b505af1158015620008f3573d6000803e3d6000fd5b505050508060a001516001600160a01b031682846001600160a01b03167ffd00e061029c4775e8cf4a020c68988804a2e78a40ad00957c8661bcda088e54846080015160405162000945919062003466565b60405180910390a45050600160655550565b609b5490565b60036200096b838362002693565b60038111156200098b57634e487b7160e01b600052602160045260246000fd5b14620009ab5760405162461bcd60e51b81526004016200063c9062002ed0565b6001600160a01b038281166000908152609e602090815260408083208584528252808320815161010081018352815481526001808301549482019490945260028201549281019290925260038101546060830152600481015460808301526005810154851660a0830152600681015494851660c0830152929390929160e0840191600160a01b900460ff169081111562000a5557634e487b7160e01b600052602160045260246000fd5b600181111562000a7557634e487b7160e01b600052602160045260246000fd5b90525060c08101519091506001600160a01b0316331462000aaa5760405162461bcd60e51b81526004016200063c9062003188565b6040516323b872dd60e01b81526001600160a01b038416906323b872dd9062000adc9030903390879060040162002da4565b600060405180830381600087803b15801562000af757600080fd5b505af115801562000b0c573d6000803e3d6000fd5b50506040513392508491506001600160a01b038616907f70263cc1b50c01fe7bf0b5d8fd740031f9ec2f7d6462899d1e97031900c4695490600090a4505050565b600062000b5b838362002693565b90505b92915050565b6002606554141562000b8a5760405162461bcd60e51b81526004016200063c9062003376565b6002606555600162000b9d838362002693565b600381111562000bbd57634e487b7160e01b600052602160045260246000fd5b1462000bc857600080fd5b6001600160a01b0382166000908152609e60209081526040808320848452909152902060016006820154600160a01b900460ff16600181111562000c1c57634e487b7160e01b600052602160045260246000fd5b1462000c3c5760405162461bcd60e51b81526004016200063c90620033ad565b60038101546004820154801562000c51578091505b60975462000c6090836200347d565b34101562000c825760405162461bcd60e51b81526004016200063c9062002fe3565b6000428460020154856001015462000c9b91906200347d565b62000ca79190620034db565b905060985481101562000cdf578060985462000cc49190620034db565b84600201600082825462000cd991906200347d565b90915550505b811562000d8c5760058401546040516000916001600160a01b031690849062000d089062002d8d565b60006040518083038185875af1925050503d806000811462000d47576040519150601f19603f3d011682016040523d82523d6000602084013e62000d4c565b606091505b505090508062000d8a5760058501546001600160a01b03166000908152609d60205260408120805485929062000d849084906200347d565b90915550505b505b600062000d9a8334620034db565b6001600160a01b0388166000908152609a602052604090205490915060ff161562000e2d5760068501546040516001600160a01b0390911690829062000de09062002d8d565b60006040518083038185875af1925050503d806000811462000e1f576040519150601f19603f3d011682016040523d82523d6000602084013e62000e24565b606091505b505050620010df565b6001600160a01b03871660009081526099602052604090205460ff1615620010df57604051630a216a2b60e31b81526000906001600160a01b0389169063510b51589062000e80908a9060040162003466565b60206040518083038186803b15801562000e9957600080fd5b505afa15801562000eae573d6000803e3d6000fd5b505050506040513d601f19601f8201168201806040525081019062000ed4919062002b39565b60068701549091506001600160a01b038083169116141562000f5657806001600160a01b03168260405162000f099062002d8d565b60006040518083038185875af1925050503d806000811462000f48576040519150601f19603f3d011682016040523d82523d6000602084013e62000f4d565b606091505b505050620010dd565b604051631af9cf4960e01b81526000906001600160a01b038a1690631af9cf499062000f87908b9060040162003466565b60206040518083038186803b15801562000fa057600080fd5b505afa15801562000fb5573d6000803e3d6000fd5b505050506040513d601f19601f8201168201806040525081019062000fdb919062002d01565b90506000670de0b6b3a764000062000ff48386620034b9565b62001000919062003498565b90506000620010108286620034db565b60068a01546040519192506001600160a01b0316908290620010329062002d8d565b60006040518083038185875af1925050503d806000811462001071576040519150601f19603f3d011682016040523d82523d6000602084013e62001076565b606091505b505050836001600160a01b031682604051620010929062002d8d565b60006040518083038185875af1925050503d8060008114620010d1576040519150601f19603f3d011682016040523d82523d6000602084013e620010d6565b606091505b5050505050505b505b6005850180546001600160a01b03191633908117909155346004870181905560405188916001600160a01b038b16917fb1ebd8ac43cd669bb0ccb1cefa2f8dc53c3838f178df0a60bc32217f1fc77e05916200113d9142906200346f565b60405180910390a4505060016065555050505050565b6000609b82815481106200117757634e487b7160e01b600052603260045260246000fd5b6000918252602090912001546001600160a01b031692915050565b6200119c62002a45565b6001600160a01b038381166000908152609e60209081526040808320868452825291829020825161010081018452815481526001808301549382019390935260028201549381019390935260038101546060840152600481015460808401526005810154841660a0840152600681015493841660c0840152919260e0840191600160a01b90910460ff16908111156200124557634e487b7160e01b600052602160045260246000fd5b60018111156200126557634e487b7160e01b600052602160045260246000fd5b9052509392505050565b60008211620012925760405162461bcd60e51b81526004016200063c90620030f2565b6706f05b59d3b20000811115620012bd5760405162461bcd60e51b81526004016200063c90620030ab565b604051627510c360e71b81526000906001600160a01b03891690633a88618090620012f5908a908a9033903090899060040162002e96565b602060405180830381600087803b1580156200131057600080fd5b505af115801562001325573d6000803e3d6000fd5b505050506040513d601f19601f820116820180604052508101906200134b919062002d01565b90506200135e888287878760006200276a565b5050505050505050565b600081116200138b5760405162461bcd60e51b81526004016200063c9062003243565b600062001399868662002693565b6001600160a01b0387166000818152609e602090815260408083208a845290915280822090516331a9108f60e11b815293945092909190636352211e90620013e6908a9060040162003466565b60206040518083038186803b158015620013ff57600080fd5b505afa15801562001414573d6000803e3d6000fd5b505050506040513d601f19601f820116820180604052508101906200143a919062002b39565b6001600160a01b0389811660009081526099602052604090205491163314915060ff16806200148157506001600160a01b0388166000908152609a602052604090205460ff165b8015620014ce57508080620014ce57506003836003811115620014b457634e487b7160e01b600052602160045260246000fd5b148015620014ce575060068201546001600160a01b031633145b620014ed5760405162461bcd60e51b81526004016200063c90620031cd565b80156200155b576040516323b872dd60e01b81526001600160a01b038916906323b872dd906200152690339030908c9060040162002da4565b600060405180830381600087803b1580156200154157600080fd5b505af115801562001556573d6000803e3d6000fd5b505050505b6040516331a9108f60e11b815230906001600160a01b038a1690636352211e906200158b908b9060040162003466565b60206040518083038186803b158015620015a457600080fd5b505afa158015620015b9573d6000803e3d6000fd5b505050506040513d601f19601f82011682018060405250810190620015df919062002b39565b6001600160a01b031614620016085760405162461bcd60e51b81526004016200063c9062003291565b6200135e888888888860016200276a565b620016236200268f565b6001600160a01b0316620016366200166d565b6001600160a01b0316146200165f5760405162461bcd60e51b81526004016200063c906200320e565b6200166b600062002881565b565b6033546001600160a01b031690565b60026065541415620016a25760405162461bcd60e51b81526004016200063c9062003376565b60026065556001620016b5838362002693565b6003811115620016d557634e487b7160e01b600052602160045260246000fd5b14620016e057600080fd5b6001600160a01b0382166000908152609e602090815260408083208484529091528120906006820154600160a01b900460ff1660018111156200173357634e487b7160e01b600052602160045260246000fd5b14620017535760405162461bcd60e51b81526004016200063c906200301a565b60038101543481146200177a5760405162461bcd60e51b81526004016200063c906200332c565b6005820180546001600160a01b03191633908117909155346004808501919091556040516323b872dd60e01b81526001600160a01b038716926323b872dd92620017ca9230929189910162002da4565b600060405180830381600087803b158015620017e557600080fd5b505af1158015620017fa573d6000803e3d6000fd5b505050506001600160a01b0384166000908152609a602052604090205460ff16156200188e5760068201546040516001600160a01b03909116908290620018419062002d8d565b60006040518083038185875af1925050503d806000811462001880576040519150601f19603f3d011682016040523d82523d6000602084013e62001885565b606091505b50505062001b40565b6001600160a01b03841660009081526099602052604090205460ff161562001b4057604051630a216a2b60e31b81526000906001600160a01b0386169063510b515890620018e190879060040162003466565b60206040518083038186803b158015620018fa57600080fd5b505afa1580156200190f573d6000803e3d6000fd5b505050506040513d601f19601f8201168201806040525081019062001935919062002b39565b60068401549091506001600160a01b0380831691161415620019b757806001600160a01b0316826040516200196a9062002d8d565b60006040518083038185875af1925050503d8060008114620019a9576040519150601f19603f3d011682016040523d82523d6000602084013e620019ae565b606091505b50505062001b3e565b604051631af9cf4960e01b81526000906001600160a01b03871690631af9cf4990620019e890889060040162003466565b60206040518083038186803b15801562001a0157600080fd5b505afa15801562001a16573d6000803e3d6000fd5b505050506040513d601f19601f8201168201806040525081019062001a3c919062002d01565b90506000670de0b6b3a764000062001a558386620034b9565b62001a61919062003498565b9050600062001a718286620034db565b60068701546040519192506001600160a01b031690829062001a939062002d8d565b60006040518083038185875af1925050503d806000811462001ad2576040519150601f19603f3d011682016040523d82523d6000602084013e62001ad7565b606091505b505050836001600160a01b03168260405162001af39062002d8d565b60006040518083038185875af1925050503d806000811462001b32576040519150601f19603f3d011682016040523d82523d6000602084013e62001b37565b606091505b5050505050505b505b336001600160a01b031683856001600160a01b03167fd0de3e759b6d8ae4ab8dfd56f0869b691034bf2f14b896155287e5cd61d66a703460405162001b86919062003466565b60405180910390a4505060016065555050565b609c5490565b60985490565b62001baf6200268f565b6001600160a01b031662001bc26200166d565b6001600160a01b03161462001beb5760405162461bcd60e51b81526004016200063c906200320e565b60978190556040517fe1f9b1baa3bd972c901f8f1cb2104ef7f48038c61070cd1aba4a9aa93f084f259062001c2290839062003466565b60405180910390a150565b609d6020526000908152604090205481565b6000811162001c625760405162461bcd60e51b81526004016200063c90620030f2565b600062001c70868662002693565b6001600160a01b0387166000818152609e602090815260408083208a845290915280822090516331a9108f60e11b815293945092909190636352211e9062001cbd908a9060040162003466565b60206040518083038186803b15801562001cd657600080fd5b505afa15801562001ceb573d6000803e3d6000fd5b505050506040513d601f19601f8201168201806040525081019062001d11919062002b39565b6001600160a01b0389811660009081526099602052604090205491163314915060ff168062001d5857506001600160a01b0388166000908152609a602052604090205460ff165b801562001da55750808062001da55750600383600381111562001d8b57634e487b7160e01b600052602160045260246000fd5b14801562001da5575060068201546001600160a01b031633145b62001dc45760405162461bcd60e51b81526004016200063c90620031cd565b801562001e32576040516323b872dd60e01b81526001600160a01b038916906323b872dd9062001dfd90339030908c9060040162002da4565b600060405180830381600087803b15801562001e1857600080fd5b505af115801562001e2d573d6000803e3d6000fd5b505050505b6040516331a9108f60e11b815230906001600160a01b038a1690636352211e9062001e62908b9060040162003466565b60206040518083038186803b15801562001e7b57600080fd5b505afa15801562001e90573d6000803e3d6000fd5b505050506040513d601f19601f8201168201806040525081019062001eb6919062002b39565b6001600160a01b03161462001edf5760405162461bcd60e51b81526004016200063c9062003291565b6200135e888888888860006200276a565b6706f05b59d3b2000081565b600062001f0a838362002693565b6001600160a01b038481166000908152609e602090815260408083208784528252808320815161010081018352815481526001808301549482019490945260028201549281019290925260038101546060830152600481015460808301526005810154851660a0830152600681015494851660c08301529495509193919260e0840191600160a01b90910460ff169081111562001fb757634e487b7160e01b600052602160045260246000fd5b600181111562001fd757634e487b7160e01b600052602160045260246000fd5b90525060c08101519091506001600160a01b031633146200200c5760405162461bcd60e51b81526004016200063c9062003188565b60008260038111156200202f57634e487b7160e01b600052602160045260246000fd5b1480620020ca575060018260038111156200205a57634e487b7160e01b600052602160045260246000fd5b148015620020ca575060018160e0015160018111156200208a57634e487b7160e01b600052602160045260246000fd5b1480156200209a57506080810151155b80620020ca575060008160e001516001811115620020c857634e487b7160e01b600052602160045260246000fd5b145b620020e95760405162461bcd60e51b81526004016200063c9062003066565b6001600160a01b0384166000908152609e602090815260408083208684529091528120600180820183905560029091019190915560e0820151908111156200214157634e487b7160e01b600052602160045260246000fd5b83856001600160a01b03167f9a4a9230f1235f8fbfec7d7e9cff82596dc625a14df1103c79d28478fb80c647846060015143604051620021839291906200346f565b60405180910390a450505050565b60008211620021b45760405162461bcd60e51b81526004016200063c9062003243565b6706f05b59d3b20000811115620021df5760405162461bcd60e51b81526004016200063c9062002f14565b604051627510c360e71b81526000906001600160a01b03891690633a8861809062002217908a908a9033903090899060040162002e96565b602060405180830381600087803b1580156200223257600080fd5b505af115801562002247573d6000803e3d6000fd5b505050506040513d601f19601f820116820180604052508101906200226d919062002d01565b90506200135e888287878760016200276a565b600054610100900460ff16806200229a575060005460ff16155b620022b95760405162461bcd60e51b81526004016200063c906200313a565b600054610100900460ff16158015620022e5576000805460ff1961ff0019909116610100171660011790555b620022ef620028d3565b620022f96200294d565b62002303620029c6565b60978390556098829055801562002320576000805461ff00191690555b505050565b6001600160a01b03919091166000908152609e602090815260408083209383529290522060060154600160a01b900460ff1690565b6000803088888888888833604051620023739062002abb565b6200238698979695949392919062002dc8565b604051809103906000f080158015620023a3573d6000803e3d6000fd5b50609b805460018082019092557fbba9db4cdbea0a37c207bbb83e20f828cd4441c49891101dc94fd20dc8efc3490180546001600160a01b0319166001600160a01b03841690811790915560009081526099602052604090819020805460ff1916909217909155519091506200241d908790879062002d7d565b6040518091039020336001600160a01b0316826001600160a01b03167f5fead977881b23a0dbf2f905699203f29cefea57a576d2d4f412523191258e8487876040516200246c92919062002e78565b60405180910390a4979650505050505050565b60026065541415620024a55760405162461bcd60e51b81526004016200063c9062003376565b6002606555336000818152609d60205260408082205490519092908390620024cd9062002d8d565b60006040518083038185875af1925050503d80600081146200250c576040519150601f19603f3d011682016040523d82523d6000602084013e62002511565b606091505b5050905080156200252d57336000908152609d60205260408120555b7fddf79295850daa43c9a6fa78729a445270b90812ab7fd0ebfc14c773d9171ec133836040516200256092919062002e32565b60405180910390a150506001606555565b6200257b6200268f565b6001600160a01b03166200258e6200166d565b6001600160a01b031614620025b75760405162461bcd60e51b81526004016200063c906200320e565b60988190556040517fcc2c34a1adf0911114053f75b51b2b1f8fc9ef9e25f0a5f12f210032b5b0a1b29062001c2290839062003466565b620025f86200268f565b6001600160a01b03166200260b6200166d565b6001600160a01b031614620026345760405162461bcd60e51b81526004016200063c906200320e565b6001600160a01b0381166200265d5760405162461bcd60e51b81526004016200063c9062002f5b565b620026688162002881565b50565b6000609c82815481106200117757634e487b7160e01b600052603260045260246000fd5b3390565b6001600160a01b0382166000908152609e6020908152604080832084845290915281206001810154421015620026ce57600091505062000b5e565b4281600201548260010154620026e591906200347d565b11156200274a5760006006820154600160a01b900460ff1660018111156200271d57634e487b7160e01b600052602160045260246000fd5b1480156200272e5750600481015415155b156200273f57600291505062000b5e565b600191505062000b5e565b6004810154156200276057600291505062000b5e565b5060039392505050565b6001600160a01b0386166000908152609e6020908152604080832088845290915281204381556001808201879055600282018690556003820185905560048201929092556005810180546001600160a01b03191690556006810180549192849260ff60a01b191690600160a01b908490811115620027f857634e487b7160e01b600052602160045260246000fd5b02179055506006810180546001600160a01b031916331790558160018111156200283257634e487b7160e01b600052602160045260246000fd5b86886001600160a01b03167f9a4a9230f1235f8fbfec7d7e9cff82596dc625a14df1103c79d28478fb80c6478643604051620028709291906200346f565b60405180910390a450505050505050565b603380546001600160a01b038381166001600160a01b0319831681179093556040519116919082907f8be0079c531659141344cd1fd0a4f28419497f9722a3daafe3b4186f6b6457e090600090a35050565b600054610100900460ff1680620028ed575060005460ff16155b6200290c5760405162461bcd60e51b81526004016200063c906200313a565b600054610100900460ff1615801562002938576000805460ff1961ff0019909116610100171660011790555b801562002668576000805461ff001916905550565b600054610100900460ff168062002967575060005460ff16155b620029865760405162461bcd60e51b81526004016200063c906200313a565b600054610100900460ff16158015620029b2576000805460ff1961ff0019909116610100171660011790555b62002938620029c06200268f565b62002881565b600054610100900460ff1680620029e0575060005460ff16155b620029ff5760405162461bcd60e51b81526004016200063c906200313a565b600054610100900460ff1615801562002a2b576000805460ff1961ff0019909116610100171660011790555b6001606555801562002668576000805461ff001916905550565b604051806101000160405280600081526020016000815260200160008152602001600081526020016000815260200160006001600160a01b0316815260200160006001600160a01b031681526020016000600181111562002ab657634e487b7160e01b600052602160045260246000fd5b905290565b6125d0806200353883390190565b60008083601f84011262002adb578182fd5b50813567ffffffffffffffff81111562002af3578182fd5b60208301915083602082850101111562002b0c57600080fd5b9250929050565b60006020828403121562002b25578081fd5b813562002b328162003521565b9392505050565b60006020828403121562002b4b578081fd5b815162002b328162003521565b600080600080600080600060c0888a03121562002b73578283fd5b873562002b808162003521565b9650602088013567ffffffffffffffff81111562002b9c578384fd5b62002baa8a828b0162002ac9565b989b909a509798604081013598606082013598506080820135975060a09091013595509350505050565b6000806040838503121562002be7578182fd5b823562002bf48162003521565b946020939093013593505050565b600080600080600060a0868803121562002c1a578081fd5b853562002c278162003521565b97602087013597506040870135966060810135965060800135945092505050565b6000806000806000806060878903121562002c61578182fd5b863567ffffffffffffffff8082111562002c79578384fd5b62002c878a838b0162002ac9565b9098509650602089013591508082111562002ca0578384fd5b62002cae8a838b0162002ac9565b9096509450604089013591508082111562002cc7578384fd5b5062002cd689828a0162002ac9565b979a9699509497509295939492505050565b60006020828403121562002cfa578081fd5b5035919050565b60006020828403121562002d13578081fd5b5051919050565b6000806040838503121562002d2d578182fd5b50508035926020909101359150565b6002811062002d4f5762002d4f6200350b565b9052565b60008284528282602086013780602084860101526020601f19601f85011685010190509392505050565b6000828483379101908152919050565b90565b6001600160a01b0391909116815260200190565b6001600160a01b039384168152919092166020820152604081019190915260600190565b600060018060a01b03808b16835260a0602084015262002ded60a084018a8c62002d53565b838103604085015262002e0281898b62002d53565b9050838103606085015262002e1981878962002d53565b9250508084166080840152509998505050505050505050565b6001600160a01b03929092168252602082015260400190565b602081016004831062002e625762002e626200350b565b91905290565b6020810162000b5e828462002d3c565b60006020825262002e8e60208301848662002d53565b949350505050565b60006080825262002eac60808301878962002d53565b6001600160a01b039586166020840152939094166040820152606001529392505050565b60208082526024908201527f4d61726b6574706c6163653a204c697374696e67206973206e6f74206f766572604082015263081e595d60e21b606082015260800190565b60208082526027908201527f4d61726b6574706c6163653a20526573616c6520726f79616c747920697320746040820152660dede40d0d2ced60cb1b606082015260800190565b60208082526026908201527f4f776e61626c653a206e6577206f776e657220697320746865207a65726f206160408201526564647265737360d01b606082015260800190565b60208082526022908201527f4d61726b6574706c6163653a204f6e6c792077696e6e65722063616e20636c61604082015261696d60f01b606082015260800190565b60208082526018908201527f4d61726b6574706c6163653a2042696420746f6f206c6f770000000000000000604082015260600190565b6020808252602c908201527f4d61726b6574706c6163653a2043616e6e6f74207075726368617365206e6f6e60408201526b2d66697865642d707269636560a01b606082015260800190565b60208082526025908201527f4d61726b6574706c6163653a2043616e6e6f742073746f702074686973206c696040820152647374696e6760d81b606082015260800190565b60208082526027908201527f4d61726b6574706c6163653a20526573656c6c20726f79616c747920697320746040820152660dede40d0d2ced60cb1b606082015260800190565b60208082526028908201527f4d61726b6574706c6163653a2043616e6e6f74206c6973742077697468207a65604082015267726f2076616c756560c01b606082015260800190565b6020808252602e908201527f496e697469616c697a61626c653a20636f6e747261637420697320616c72656160408201526d191e481a5b9a5d1a585b1a5e995960921b606082015260800190565b60208082526025908201527f4d61726b6574706c6163653a204f6e6c792063726561746f722063616e20706560408201526472666f726d60d81b606082015260800190565b60208082526021908201527f4d61726b6574706c6163653a2043616e6e6f74207374617274206c697374696e6040820152606760f81b606082015260800190565b6020808252818101527f4f776e61626c653a2063616c6c6572206973206e6f7420746865206f776e6572604082015260600190565b6020808252602e908201527f4d61726b6574706c6163653a2043616e6e6f74206c6973742077697468207a6560408201526d1c9bc81b5a5b9a5b585b08189a5960921b606082015260800190565b60208082526033908201527f4d61726b6574706c6163653a2053706163652073686f756c64206f776e206974604082015272656d20746f207374617274206c697374696e6760681b606082015260800190565b60208082526028908201527f4d61726b6574706c6163653a20436f6c6c656374696f6e20616c7265616479206040820152671a5b5c1bdc9d195960c21b606082015260800190565b6020808252602a908201527f4d61726b6574706c6163653a206d73672e76616c756520646f65736e2774206d604082015269617463682076616c756560b01b606082015260800190565b6020808252601f908201527f5265656e7472616e637947756172643a207265656e7472616e742063616c6c00604082015260600190565b60208082526027908201527f4d61726b6574706c6163653a20426964206f6e206e6f6e2d61756374696f6e206040820152666c697374696e6760c81b606082015260800190565b600061010082019050825182526020830151602083015260408301516040830152606083015160608301526080830151608083015260a083015160018060a01b0380821660a08501528060c08601511660c0850152505060e08301516200345f60e084018262002d3c565b5092915050565b90815260200190565b918252602082015260400190565b60008219821115620034935762003493620034f5565b500190565b600082620034b457634e487b7160e01b81526012600452602481fd5b500490565b6000816000190483118215151615620034d657620034d6620034f5565b500290565b600082821015620034f057620034f0620034f5565b500390565b634e487b7160e01b600052601160045260246000fd5b634e487b7160e01b600052602160045260246000fd5b6001600160a01b03811681146200266857600080fdfe60806040523480156200001157600080fd5b50604051620025d0380380620025d0833981016040819052620000349162000351565b8251839083906200004d906000906020850190620001e3565b50805162000063906001906020840190620001e3565b505050620000806200007a620000f860201b60201c565b620000fc565b600c80546001600160a01b0319166001600160a01b0387161790558351620000b090600b906020870190620001e3565b5060408051808201909152600780825266697066733a2f2f60c81b6020909201918252620000e191601191620001e3565b50620000ed816200014e565b5050505050620004d3565b3390565b600a80546001600160a01b038381166001600160a01b0319831681179093556040519116919082907f8be0079c531659141344cd1fd0a4f28419497f9722a3daafe3b4186f6b6457e090600090a35050565b62000158620000f8565b6001600160a01b03166200016b620001d4565b6001600160a01b0316146200019d5760405162461bcd60e51b815260040162000194906200044b565b60405180910390fd5b6001600160a01b038116620001c65760405162461bcd60e51b8152600401620001949062000405565b620001d181620000fc565b50565b600a546001600160a01b031690565b828054620001f19062000480565b90600052602060002090601f01602090048101928262000215576000855562000260565b82601f106200023057805160ff191683800117855562000260565b8280016001018555821562000260579182015b828111156200026057825182559160200191906001019062000243565b506200026e92915062000272565b5090565b5b808211156200026e576000815560010162000273565b80516001600160a01b0381168114620002a157600080fd5b919050565b600082601f830112620002b7578081fd5b81516001600160401b0380821115620002d457620002d4620004bd565b6040516020601f8401601f1916820181018381118382101715620002fc57620002fc620004bd565b604052838252858401810187101562000313578485fd5b8492505b8383101562000336578583018101518284018201529182019162000317565b838311156200034757848185840101525b5095945050505050565b600080600080600060a0868803121562000369578081fd5b620003748662000289565b60208701519095506001600160401b038082111562000391578283fd5b6200039f89838a01620002a6565b95506040880151915080821115620003b5578283fd5b620003c389838a01620002a6565b94506060880151915080821115620003d9578283fd5b50620003e888828901620002a6565b925050620003f96080870162000289565b90509295509295909350565b60208082526026908201527f4f776e61626c653a206e6577206f776e657220697320746865207a65726f206160408201526564647265737360d01b606082015260800190565b6020808252818101527f4f776e61626c653a2063616c6c6572206973206e6f7420746865206f776e6572604082015260600190565b6002810460018216806200049557607f821691505b60208210811415620004b757634e487b7160e01b600052602260045260246000fd5b50919050565b634e487b7160e01b600052604160045260246000fd5b6120ed80620004e36000396000f3fe608060405234801561001057600080fd5b506004361061018e5760003560e01c80636c0360eb116100de578063a22cb46511610097578063b88d4fde11610071578063b88d4fde14610311578063c87b56dd14610324578063e985e9c514610337578063f2fde38b1461034a5761018e565b8063a22cb465146102ee578063a5097ebf14610301578063abc8c7af146103095761018e565b80636c0360eb146102b357806370a08231146102bb578063715018a6146102ce57806382e94ac5146102d65780638da5cb5b146102de57806395d89b41146102e65761018e565b806323b872dd1161014b57806342842e0e1161012557806342842e0e146102675780634f6ccce71461027a578063510b51581461028d5780636352211e146102a05761018e565b806323b872dd1461022e5780632f745c59146102415780633a886180146102545761018e565b806301ffc9a71461019357806306fdde03146101bc578063081812fc146101d1578063095ea7b3146101f157806318160ddd146102065780631af9cf491461021b575b600080fd5b6101a66101a13660046117e9565b61035d565b6040516101b3919061197a565b60405180910390f35b6101c461038a565b6040516101b39190611985565b6101e46101df3660046118b6565b61041c565b6040516101b39190611929565b6102046101ff3660046117c0565b610468565b005b61020e610500565b6040516101b39190611f7d565b61020e6102293660046118b6565b610506565b61020461023c36600461167f565b610518565b61020e61024f3660046117c0565b610550565b61020e610262366004611821565b6105a2565b61020461027536600461167f565b6106ba565b61020e6102883660046118b6565b6106d5565b6101e461029b3660046118b6565b610730565b6101e46102ae3660046118b6565b61074b565b6101c4610780565b61020e6102c9366004611633565b61080e565b610204610852565b61020461089d565b6101e46108eb565b6101c46108fa565b6102046102fc366004611786565b610909565b6101c46109d7565b6101e46109e6565b61020461031f3660046116ba565b6109f5565b6101c46103323660046118b6565b610a34565b6101a661034536600461164d565b610b55565b610204610358366004611633565b610b83565b60006001600160e01b0319821663780e9d6360e01b1480610382575061038282610bf4565b90505b919050565b60606000805461039990611ff5565b80601f01602080910402602001604051908101604052809291908181526020018280546103c590611ff5565b80156104125780601f106103e757610100808354040283529160200191610412565b820191906000526020600020905b8154815290600101906020018083116103f557829003601f168201915b5050505050905090565b600061042782610c34565b61044c5760405162461bcd60e51b815260040161044390611d86565b60405180910390fd5b506000908152600460205260409020546001600160a01b031690565b60006104738261074b565b9050806001600160a01b0316836001600160a01b031614156104a75760405162461bcd60e51b815260040161044390611e9f565b806001600160a01b03166104b9610c51565b6001600160a01b031614806104d557506104d581610345610c51565b6104f15760405162461bcd60e51b815260040161044390611bc2565b6104fb8383610c55565b505050565b60085490565b6000908152600e602052604090205490565b610529610523610c51565b82610cc3565b6105455760405162461bcd60e51b815260040161044390611ee0565b6104fb838383610d40565b600061055b8361080e565b82106105795760405162461bcd60e51b815260040161044390611998565b506001600160a01b03919091166000908152600660209081526040808320938352929052205490565b60006105ac6108eb565b6001600160a01b0316336001600160a01b03161480610607575060105460ff161580156105e35750600c546001600160a01b031633145b801561060757506105f26108eb565b6001600160a01b0316846001600160a01b0316145b6106235760405162461bcd60e51b815260040161044390611b79565b600061062d610500565b90506106398482610e6d565b6106798188888080601f016020809104026020016040519081016040528093929190818152602001838380828437600092019190915250610f4c92505050565b6000818152600f6020908152604080832080546001600160a01b038a166001600160a01b0319909116179055600e9091529020839055905095945050505050565b6104fb838383604051806020016040528060008152506109f5565b60006106df610500565b82106106fd5760405162461bcd60e51b815260040161044390611f31565b6008828154811061071e57634e487b7160e01b600052603260045260246000fd5b90600052602060002001549050919050565b6000908152600f60205260409020546001600160a01b031690565b6000818152600260205260408120546001600160a01b0316806103825760405162461bcd60e51b815260040161044390611c69565b6011805461078d90611ff5565b80601f01602080910402602001604051908101604052809291908181526020018280546107b990611ff5565b80156108065780601f106107db57610100808354040283529160200191610806565b820191906000526020600020905b8154815290600101906020018083116107e957829003601f168201915b505050505081565b60006001600160a01b0382166108365760405162461bcd60e51b815260040161044390611c1f565b506001600160a01b031660009081526003602052604090205490565b61085a610c51565b6001600160a01b031661086b6108eb565b6001600160a01b0316146108915760405162461bcd60e51b815260040161044390611dd2565b61089b6000610f90565b565b6108a5610c51565b6001600160a01b03166108b66108eb565b6001600160a01b0316146108dc5760405162461bcd60e51b815260040161044390611dd2565b6010805460ff19166001179055565b600a546001600160a01b031690565b60606001805461039990611ff5565b610911610c51565b6001600160a01b0316826001600160a01b031614156109425760405162461bcd60e51b815260040161044390611af6565b806005600061094f610c51565b6001600160a01b03908116825260208083019390935260409182016000908120918716808252919093529120805460ff191692151592909217909155610993610c51565b6001600160a01b03167f17307eab39ab6107e8899845ad3d59bd9653f200f220920489ca2b5937696c31836040516109cb919061197a565b60405180910390a35050565b6060600b805461039990611ff5565b600c546001600160a01b031690565b610a06610a00610c51565b83610cc3565b610a225760405162461bcd60e51b815260040161044390611ee0565b610a2e84848484610fe2565b50505050565b6060610a3f82610c34565b610a5b5760405162461bcd60e51b815260040161044390611d35565b6000828152600d602052604081208054610a7490611ff5565b80601f0160208091040260200160405190810160405280929190818152602001828054610aa090611ff5565b8015610aed5780601f10610ac257610100808354040283529160200191610aed565b820191906000526020600020905b815481529060010190602001808311610ad057829003601f168201915b505050505090506000610afe611015565b9050805160001415610b1257509050610385565b815115610b44578082604051602001610b2c9291906118fa565b60405160208183030381529060405292505050610385565b610b4d84611024565b949350505050565b6001600160a01b03918216600090815260056020908152604080832093909416825291909152205460ff1690565b610b8b610c51565b6001600160a01b0316610b9c6108eb565b6001600160a01b031614610bc25760405162461bcd60e51b815260040161044390611dd2565b6001600160a01b038116610be85760405162461bcd60e51b815260040161044390611a35565b610bf181610f90565b50565b60006001600160e01b031982166380ac58cd60e01b1480610c2557506001600160e01b03198216635b5e139f60e01b145b806103825750610382826110a7565b6000908152600260205260409020546001600160a01b0316151590565b3390565b600081815260046020526040902080546001600160a01b0319166001600160a01b0384169081179091558190610c8a8261074b565b6001600160a01b03167f8c5be1e5ebec7d5bd14f71427d1e84f3dd0314c0f7b2291e5b200ac8c7c3b92560405160405180910390a45050565b6000610cce82610c34565b610cea5760405162461bcd60e51b815260040161044390611b2d565b6000610cf58361074b565b9050806001600160a01b0316846001600160a01b03161480610d305750836001600160a01b0316610d258461041c565b6001600160a01b0316145b80610b4d5750610b4d8185610b55565b826001600160a01b0316610d538261074b565b6001600160a01b031614610d795760405162461bcd60e51b815260040161044390611e07565b6001600160a01b038216610d9f5760405162461bcd60e51b815260040161044390611ab2565b610daa8383836110c0565b610db5600082610c55565b6001600160a01b0383166000908152600360205260408120805460019290610dde908490611fb2565b90915550506001600160a01b0382166000908152600360205260408120805460019290610e0c908490611f86565b909155505060008181526002602052604080822080546001600160a01b0319166001600160a01b0386811691821790925591518493918716917fddf252ad1be2c89b69c2b068fc378daa952ba7f163c4a11628f55a4df523b3ef91a4505050565b6001600160a01b038216610e935760405162461bcd60e51b815260040161044390611d00565b610e9c81610c34565b15610eb95760405162461bcd60e51b815260040161044390611a7b565b610ec5600083836110c0565b6001600160a01b0382166000908152600360205260408120805460019290610eee908490611f86565b909155505060008181526002602052604080822080546001600160a01b0319166001600160a01b03861690811790915590518392907fddf252ad1be2c89b69c2b068fc378daa952ba7f163c4a11628f55a4df523b3ef908290a45050565b610f5582610c34565b610f715760405162461bcd60e51b815260040161044390611cb2565b6000828152600d6020908152604090912082516104fb92840190611583565b600a80546001600160a01b038381166001600160a01b0319831681179093556040519116919082907f8be0079c531659141344cd1fd0a4f28419497f9722a3daafe3b4186f6b6457e090600090a35050565b610fed848484610d40565b610ff984848484611149565b610a2e5760405162461bcd60e51b8152600401610443906119e3565b60606011805461039990611ff5565b606061102f82610c34565b61104b5760405162461bcd60e51b815260040161044390611e50565b6000611055611015565b9050600081511161107557604051806020016040528060008152506110a0565b8061107f84611264565b6040516020016110909291906118fa565b6040516020818303038152906040525b9392505050565b6001600160e01b031981166301ffc9a760e01b14919050565b6110cb8383836104fb565b6001600160a01b0383166110e7576110e28161137f565b61110a565b816001600160a01b0316836001600160a01b03161461110a5761110a83826113c3565b6001600160a01b0382166111265761112181611460565b6104fb565b826001600160a01b0316826001600160a01b0316146104fb576104fb8282611539565b600061115d846001600160a01b031661157d565b1561125957836001600160a01b031663150b7a02611179610c51565b8786866040518563ffffffff1660e01b815260040161119b949392919061193d565b602060405180830381600087803b1580156111b557600080fd5b505af19250505080156111e5575060408051601f3d908101601f191682019092526111e291810190611805565b60015b61123f573d808015611213576040519150601f19603f3d011682016040523d82523d6000602084013e611218565b606091505b5080516112375760405162461bcd60e51b8152600401610443906119e3565b805181602001fd5b6001600160e01b031916630a85bd0160e11b149050610b4d565b506001949350505050565b60608161128957506040805180820190915260018152600360fc1b6020820152610385565b8160005b81156112b3578061129d81612030565b91506112ac9050600a83611f9e565b915061128d565b60008167ffffffffffffffff8111156112dc57634e487b7160e01b600052604160045260246000fd5b6040519080825280601f01601f191660200182016040528015611306576020820181803683370190505b5090505b8415610b4d5761131b600183611fb2565b9150611328600a8661204b565b611333906030611f86565b60f81b81838151811061135657634e487b7160e01b600052603260045260246000fd5b60200101906001600160f81b031916908160001a905350611378600a86611f9e565b945061130a565b600880546000838152600960205260408120829055600182018355919091527ff3f7a9fe364faab93b216da50a3214154f22a0a2b415b23a84c8169e8b636ee30155565b600060016113d08461080e565b6113da9190611fb2565b60008381526007602052604090205490915080821461142d576001600160a01b03841660009081526006602090815260408083208584528252808320548484528184208190558352600790915290208190555b5060009182526007602090815260408084208490556001600160a01b039094168352600681528383209183525290812055565b60085460009061147290600190611fb2565b600083815260096020526040812054600880549394509092849081106114a857634e487b7160e01b600052603260045260246000fd5b9060005260206000200154905080600883815481106114d757634e487b7160e01b600052603260045260246000fd5b600091825260208083209091019290925582815260099091526040808220849055858252812055600880548061151d57634e487b7160e01b600052603160045260246000fd5b6001900381819060005260206000200160009055905550505050565b60006115448361080e565b6001600160a01b039093166000908152600660209081526040808320868452825280832085905593825260079052919091209190915550565b3b151590565b82805461158f90611ff5565b90600052602060002090601f0160209004810192826115b157600085556115f7565b82601f106115ca57805160ff19168380011785556115f7565b828001600101855582156115f7579182015b828111156115f75782518255916020019190600101906115dc565b50611603929150611607565b5090565b5b808211156116035760008155600101611608565b80356001600160a01b038116811461038557600080fd5b600060208284031215611644578081fd5b6110a08261161c565b6000806040838503121561165f578081fd5b6116688361161c565b91506116766020840161161c565b90509250929050565b600080600060608486031215611693578081fd5b61169c8461161c565b92506116aa6020850161161c565b9150604084013590509250925092565b600080600080608085870312156116cf578081fd5b6116d88561161c565b935060206116e781870161161c565b935060408601359250606086013567ffffffffffffffff8082111561170a578384fd5b818801915088601f83011261171d578384fd5b81358181111561172f5761172f61208b565b604051601f8201601f19168101850183811182821017156117525761175261208b565b60405281815283820185018b1015611768578586fd5b81858501868301379081019093019390935250939692955090935050565b60008060408385031215611798578182fd5b6117a18361161c565b9150602083013580151581146117b5578182fd5b809150509250929050565b600080604083850312156117d2578182fd5b6117db8361161c565b946020939093013593505050565b6000602082840312156117fa578081fd5b81356110a0816120a1565b600060208284031215611816578081fd5b81516110a0816120a1565b600080600080600060808688031215611838578081fd5b853567ffffffffffffffff8082111561184f578283fd5b818801915088601f830112611862578283fd5b813581811115611870578384fd5b896020828501011115611881578384fd5b602092830197509550611897918801905061161c565b92506118a56040870161161c565b949793965091946060013592915050565b6000602082840312156118c7578081fd5b5035919050565b600081518084526118e6816020860160208601611fc9565b601f01601f19169290920160200192915050565b6000835161190c818460208801611fc9565b835190830190611920818360208801611fc9565b01949350505050565b6001600160a01b0391909116815260200190565b6001600160a01b0385811682528416602082015260408101839052608060608201819052600090611970908301846118ce565b9695505050505050565b901515815260200190565b6000602082526110a060208301846118ce565b6020808252602b908201527f455243373231456e756d657261626c653a206f776e657220696e646578206f7560408201526a74206f6620626f756e647360a81b606082015260800190565b60208082526032908201527f4552433732313a207472616e7366657220746f206e6f6e20455243373231526560408201527131b2b4bb32b91034b6b83632b6b2b73a32b960711b606082015260800190565b60208082526026908201527f4f776e61626c653a206e6577206f776e657220697320746865207a65726f206160408201526564647265737360d01b606082015260800190565b6020808252601c908201527f4552433732313a20746f6b656e20616c7265616479206d696e74656400000000604082015260600190565b60208082526024908201527f4552433732313a207472616e7366657220746f20746865207a65726f206164646040820152637265737360e01b606082015260800190565b60208082526019908201527f4552433732313a20617070726f766520746f2063616c6c657200000000000000604082015260600190565b6020808252602c908201527f4552433732313a206f70657261746f7220717565727920666f72206e6f6e657860408201526b34b9ba32b73a103a37b5b2b760a11b606082015260800190565b60208082526029908201527f4552433732314d61726b6574706c6163653a204e6f207065726d697373696f6e6040820152681cc81d1bc81b5a5b9d60ba1b606082015260800190565b60208082526038908201527f4552433732313a20617070726f76652063616c6c6572206973206e6f74206f7760408201527f6e6572206e6f7220617070726f76656420666f7220616c6c0000000000000000606082015260800190565b6020808252602a908201527f4552433732313a2062616c616e636520717565727920666f7220746865207a65604082015269726f206164647265737360b01b606082015260800190565b60208082526029908201527f4552433732313a206f776e657220717565727920666f72206e6f6e657869737460408201526832b73a103a37b5b2b760b91b606082015260800190565b6020808252602e908201527f45524337323155524953746f726167653a2055524920736574206f66206e6f6e60408201526d32bc34b9ba32b73a103a37b5b2b760911b606082015260800190565b6020808252818101527f4552433732313a206d696e7420746f20746865207a65726f2061646472657373604082015260600190565b60208082526031908201527f45524337323155524953746f726167653a2055524920717565727920666f72206040820152703737b732bc34b9ba32b73a103a37b5b2b760791b606082015260800190565b6020808252602c908201527f4552433732313a20617070726f76656420717565727920666f72206e6f6e657860408201526b34b9ba32b73a103a37b5b2b760a11b606082015260800190565b6020808252818101527f4f776e61626c653a2063616c6c6572206973206e6f7420746865206f776e6572604082015260600190565b60208082526029908201527f4552433732313a207472616e73666572206f6620746f6b656e2074686174206960408201526839903737ba1037bbb760b91b606082015260800190565b6020808252602f908201527f4552433732314d657461646174613a2055524920717565727920666f72206e6f60408201526e3732bc34b9ba32b73a103a37b5b2b760891b606082015260800190565b60208082526021908201527f4552433732313a20617070726f76616c20746f2063757272656e74206f776e656040820152603960f91b606082015260800190565b60208082526031908201527f4552433732313a207472616e736665722063616c6c6572206973206e6f74206f6040820152701ddb995c881b9bdc88185c1c1c9bdd9959607a1b606082015260800190565b6020808252602c908201527f455243373231456e756d657261626c653a20676c6f62616c20696e646578206f60408201526b7574206f6620626f756e647360a01b606082015260800190565b90815260200190565b60008219821115611f9957611f9961205f565b500190565b600082611fad57611fad612075565b500490565b600082821015611fc457611fc461205f565b500390565b60005b83811015611fe4578181015183820152602001611fcc565b83811115610a2e5750506000910152565b60028104600182168061200957607f821691505b6020821081141561202a57634e487b7160e01b600052602260045260246000fd5b50919050565b60006000198214156120445761204461205f565b5060010190565b60008261205a5761205a612075565b500690565b634e487b7160e01b600052601160045260246000fd5b634e487b7160e01b600052601260045260246000fd5b634e487b7160e01b600052604160045260246000fd5b6001600160e01b031981168114610bf157600080fdfea2646970667358221220eecd7a15acbde743663d14b8eb859e80187df62aabeab580fd834bafaff50ffc64736f6c63430008000033a2646970667358221220157c9f9f57bd537a298b138ff75d18d0be0fd64602c8bea751acf252c390176e64736f6c63430008000033",
  "linkReferences": {},
  "deployedLinkReferences": {}
}